:020000040800F2
:1000000008040020C9000008EF000008F100000803
:1000100000000000000000000000000000000000E0
:10002000000000000000000000000000F3000008D5
:100030000000000000000000F5000008F7000008C4
:10004000F900000800000000F9000008F9000008AD
:10005000F9000008F9000008F9000008F90000089C
:1000600000000000F9000008F9000008F90000088D
:10007000F9000008F9000008F9000008000000007D
:10008000F90000080000000000000000F90000086E
:10009000F9000008F9000008F9000008F90000085C
:1000A000F9000008F9000008F9000008F90000084C
:1000B000F90000080348854600F04EF90048004763
:1000C00099070008080400200C4880F308880C48B1
:1000D0000168090E0B4A914205D10B480B4901609A
:1000E0000B480C4901600C4880470C480047FEE76C
:1000F000FEE7FEE7FEE7FEE7FEE70000080400205B
:10010000040000001F000000181002400100000061
:10011000000001400000000089050008B50000084B
:10012000F8B502464A40D40F42004B0052085B0823
:100130009A4202D20246084611464A0023D0C30D15
:100140004A00DDB2120EAD1A202D35DA4902012621
:10015000490AF6058A19002C00D0524220214F1B73
:100160001146B9402A411018C20D9A4221D0002CE4
:1001700017D0012D08DCDA05801AD20F8019D207BA
:10018000DBB200F0AFF8F8BDDA05801A01234000B9
:100190001B06C01880185A428018CA0F1043490025
:1001A00007E04908C2071143DA05801A80194008A0
:1001B000801800F08FF8F8BD61000122511A001B71
:1001C000F7E70122D2075140AAE70122D2075040A7
:1001D000A6E770B502464A40D50F40004A00ED0739
:1001E00040085208002814D0002A12D0C40DD30DA4
:1001F00041020120C0055202490A520AE41A0918B4
:1002000012187D34914201D3641C00E04900002C97
:1002100001DA002070BD0023914201D3891A034303
:10022000400849000028F7D100290AD0914202D1A4
:100230000121C90705E0914201D2012101E001211C
:10024000C943E005C018401900F044F870BD10B56E
:1002500000229623114600F045F810BD41004002EF
:100260000122400AD205090E80187F2901DA0020F8
:100270007047962903DC9622511AC8407047963978
:1002800088407047C20FD207400040080BD0C10D14
:100290000723DB01C91840020905400A1143C208BF
:1002A00040071143704700200146704710B50029F0
:1002B00004DB0124E40740428C412146002B04DB8F
:1002C0001C460123DB075242A341994200D19042D0
:1002D00010BD0000002904DA401C490001D140088B
:1002E0004000704770B40024050C05D110240004B0
:1002F00002D1002921D01124050E01D100020834B9
:10030000050F01D10001241D850F01D18000A41C1F
:10031000002801DB4000641C002908D020252E1B8A
:100320000D46F540A14000D00121294308430106B4
:100330001B1B000ADB1D02D5002070BC7047DB05CB
:10034000181880180029F8DA401C4900F5D170BC53
:100350004008400070470000064C0125064E05E0AD
:10036000E36807CC2B430C3C98471034B442F7D3D6
:10037000FFF7A4FE400800086008000801460D4A87
:1003800012884A430C4B5A6100229A6101221A6179
:1003900000BF094A1069C207D20F002A04D0012207
:1003A00012040240002AF4D00022034B1A619A6121
:1003B000704700000200002000E000E0044612A0A8
:1003C00000F0BAF97D20C000FFF7D8FF1BE009203C
:1003D000C006808A102108430921C90688820FA01F
:1003E00000F0AAF92046FFF7C9FF0920C006808A5D
:1003F000102188430921C90688820BA000F09CF9CE
:100400002046FFF7BBFFE2E70ACDF2CEEFCABCD32E
:10041000DAB5E3B5C62E2E2E0A0000006C65642006
:100420006F6E2E0A000000006C6564206F66662EF9
:100430000A0000000F4840690121490408430D49A2
:1004400048610920C0060068891508430921C906CA
:100450000860084680680321090208430921C9068B
:1004600088600846808A102188430921C90688824D
:1004700070470000001002400CB500200190009071
:10048000314800680121090408432F49086000BF72
:100490002D48006801214904084000900198401C43
:1004A00001900098002804D1052109030198884291
:1004B000EED125480068012149040840002802D0F7
:1004C0000120009001E0002000900098012839D11F
:1004D00011201E4908601C4840681B4948600846B6
:1004E00040684860084640687F21C9038843164930
:1004F00048600846406811210904084312494860D1
:10050000084600680121090608430F49086000BF3A
:100510000D4800680121490608400028F8D00A4823
:100520004068800880000849486008464068022109
:1005300008430549486000BF034840680C21084053
:100540000828F9D10CBD0000001002400020024034
:100550000A49096904229143084A1161C217520FDE
:1005600012185205120E064B1A70194609787D2290
:10057000D2005143034A11807047000000E000E0C0
:10058000000000200200002010B51B480068012177
:100590000843194908600846406818490840164948
:1005A0004860084600681649084013490860084634
:1005B00000680121890488430F49086008464068A3
:1005C0003F21090488430C4948600846C06A000975
:1005D0000001C8620846006BFF2154318843064978
:1005E00008630846406B400840004863002088606C
:1005F000FFF742FF10BD0000001002400CB8FF08DA
:10060000FFFFF6FEFEB507463846FFF720FE01461F
:1006100001903D48FFF7DDFD05462846FFF71EFE29
:1006200084B22046FFF713FE29460190FFF7CDFD67
:1006300002900298FFF726FE0022344B01910090B1
:10064000FFF734FE01D8601C84B22646304840696A
:100650000121490408432E49486108468069012167
:10066000890308432A4988610920C006406AFF219E
:10067000113108430921C906486208460068254926
:1006800008430921C9060860084680680F218904CB
:1006900008430921C90688600846C0680521890405
:1006A00008430921C906C8601948C06801218903A7
:1006B00008431749C8600846C06801218903884378
:1006C0001349C86014480068400840001249086097
:1006D0000846868100682C2108430F4908600846B7
:1006E00000680521890288430B4908600846406874
:1006F000032109038843084948600846006801212E
:10070000084305490860FEBD001B374C0000E03F70
:1007100000100240000028280038014000BF0549B1
:10072000C969402211400029F9D0024920310881CD
:10073000704700000038014010B5024A024900F03D
:1007400014F810BD890700080400002002E008C862
:10075000121F08C1002AFAD170477047002001E03B
:1007600001C1121F002AFBD17047F8B516460F468B
:100770000446002503E03946B047641C6D1C207810
:100780000028F8D12846F8BD10B503460C46D8B26B
:10079000FFF7C4FF184610BD10B53020FFF7D8FE94
:1007A000E1204002FFF72EFFFFF744FE0DA0FFF708
:1007B000C3FF7D20C000FFF7E1FD0DA0FFF7BCFFE8
:1007C0007D20C000FFF7DAFD0FA0FFF7B5FF7D2009
:1007D000C000FFF7D3FD7D20C000FFF7EFFD002034
:1007E00010BD0000CAB7B4EFB7D2C1D60A000000EE
:1007F00053544D3332463033304634503620C3D410
:10080000C4E3B0E5A3A10A00C4DABACBA3BA41524B
:100810004D20436F727465782D4D300AD6F7C6B5FA
:10082000A3BA34384D487A0A466C617368A3BA316A
:10083000364B420A5352414DA3BA344B420A000090
:100840006008000800000020080000004C070008B5
:100850006808000808000020000400005C07000889
:08086000000000000000000090
:04000005080000B53A
:00000001FF
