:020000040800F2
:1000000010040020C90000086B0200084902000823
:1000100000000000000000000000000000000000E0
:10002000000000000000000000000000F9040008CB
:1000300000000000000000006D020008D505000867
:10004000F900000800000000F9000008F9000008AD
:10005000F9000008F9000008F9000008F90000089C
:1000600000000000F9000008F9000008F90000088D
:10007000F9000008F9000008F9000008000000007D
:10008000F90000080000000000000000F90000086E
:10009000F9000008F9000008F9000008F90000085C
:1000A000F9000008F9000008F9000008F90000084C
:1000B000F90000080348854600F048F8004800476A
:1000C00017080008100400200C4880F308880C482A
:1000D0000168090E0B4A914205D10B480B4901609A
:1000E0000B480C4901600C4880470C480047FEE76C
:1000F000FEE7FEE7FEE7FEE7FEE700001004002053
:10010000040000001F000000181002400100000061
:100110000000014000000000D9050008B5000008FB
:1001200030B50B46014600202022012409E00D468F
:10013000D5409D4205D31D469540491B2546954017
:1001400040191546521E002DF1DC30BD064C01252C
:10015000064E05E0E36807CC2B430C3C984710346F
:10016000B442F7D3FFF7AAFF340800085408000888
:10017000F0B50A4600210023002400BF3DE0012520
:100180008D402B4615681D402C469C4234D1157974
:10019000012D02D01579022D16D185684F00032656
:1001A000BE40B543856055794E00B54086683543FD
:1001B0008560858801268E40B5438580858896793F
:1001C0008E40B6B23543858005684F000326BE4099
:1001D000B543056015794E00B540066835430560A6
:1001E000C5684F000326BE40B543C560D5794E00B3
:1001F000B540C6683543C560491C1029BFD3F0BD62
:10020000F0B5002300244D07EE0E1546B5402B46F1
:10021000CD10AE0005462035AD594E07F70E0F261E
:10022000BE40B543CE10B60007462037BD51CD10B5
:10023000AE003D46AD591D432C46CD10AD003E46A7
:100240007451F0BD8161704700BFFEE71CB501210C
:10025000480400F00DF81020009001206946087154
:100260000920C006FFF784FF1CBD704770470000DF
:10027000002905D0054A52690243044B5A6104E043
:10028000024A52698243014B5A6170470010024092
:10029000002905D0054A92690243044B9A6104E0A3
:1002A000024A92698243014B9A61704700100240F2
:1002B000FEB5044600250026002002900190009023
:1002C0000027864840680C2108400546002D06D0CE
:1002D000042D07D0082D08D00C2D2CD128E0804803
:1002E00020602BE07E48206028E07C4840680F2199
:1002F000890408400646794840680321C90308403C
:100300000290B00C861C0298002803D1754837462D
:1003100047430BE07148C06A0007000F401C019082
:100320006F480199FFF7FCFE70430746276005E020
:100330006D48206002E06A48206000BF00BF674847
:100340004068F021084005462D096848405D00904E
:1003500020680099C8406060604840680721090231
:10036000084005462D0A6148405D0090616800988C
:10037000C140A1605948006BFF210131084088420B
:1003800002D05B48E0600DE05448406801218903D9
:100390000840884203D0A0684008E06002E0A068FE
:1003A0008008E0604D48006B40210840402802D0A2
:1003B0005048206102E00120C00320614748006BE3
:1003C00010210840102802D04548606101E02068F3
:1003D00060614248006B8007800F002802D1A0684E
:1003E000A06119E03D48006B8007800F012802D111
:1003F0002068A06110E03948006B8007800F022858
:1004000002D18003A06107E03448006B8007800FB1
:10041000032801D13248A0613048006B0321090450
:100420000840002802D1A068E06120E02B48006B62
:1004300003210904084001210904884202D12068EF
:10044000E06114E02548006B032109040840012104
:100450004904884202D18010E06108E01F48006B27
:10046000032109040840884201D11D48E0611B486E
:10047000006B032189040840002802D1A068206293
:1004800020E01648006B03218904084001218904FB
:10049000884202D12068206214E01048006B0321DA
:1004A000890408400121C904884202D10011206258
:1004B00008E00A48006B032189040840884201D102
:1004C000074820620548006B80210840802802D040
:1004D0000548606200E06762FEBD00000010024057
:1004E00000127A0000093D00006CDC0200000020D0
:1004F000809FD50012800000704700000CB50020DE
:1005000001900090314800680121090408432F49F7
:10051000086000BF2D480068012149040840009090
:100520000198401C01900098002804D1052109037E
:1005300001988842EED1254800680121490408400D
:10054000002802D00120009001E0002000900098D7
:10055000012839D111201E4908601C4840681B49F8
:100560004860084640684860084640687F21C903E3
:100570008843164948600846406811210904084329
:1005800012494860084600680121090608430F49DE
:10059000086000BF0D480068012149060840002896
:1005A000F8D00A484068800880000849486008463A
:1005B0004068022108430549486000BF034840687D
:1005C0000C2108400828F9D10CBD000000100240A1
:1005D000002002407047000010B51B480068012150
:1005E00008431949086008464068184908401649F8
:1005F00048600846006816490840134908600846E4
:1006000000680121890488430F4908600846406852
:100610003F21090488430C4948600846C06A000924
:100620000001C8620846006BFF2154318843064927
:1006300008630846406B400840004863002088601B
:10064000FFF75CFF10BD0000001002400CB8FF086F
:10065000FFFFF6FE002904D0026801231A4302605E
:1006600003E002685208520002607047F0B58BB098
:1006700004460D46002700200A9000262068400806
:10068000400020606668032109033046884306461F
:10069000A8680643666026682D480640E9686868D1
:1006A00008432969084306432660A6680321090216
:1006B00030468843064668690643A6606846FFF7E9
:1006C000F7FD2448844202D106980A900DE02248A2
:1006D000844202D107980A9007E02048844202D160
:1006E00008980A9001E002980A9020680121C90345
:1006F000084000280CD029680A9A5000FFF710FD26
:10070000074629680A9A5000FFF70AFD0E4609E0DD
:1007100029680A98FFF704FD074629680A98FFF739
:10072000FFFC0E4628684008B04200D87F1C2068B5
:100730000121C9030840002806D03807460F384673
:100740000749084030430746A7810BB0F0BD0000C1
:10075000F3E9FFFF0038014000440040004800403A
:10076000F0FF000000BF0549C9694022114000297F
:10077000F9D002492031088170470000003801405B
:1007800000B589B001214804FFF772FD01218803FB
:10079000FFF77EFD01220921C806FFF731FD012286
:1007A0000A210920C006FFF72BFD03204002079015
:1007B000022108A80170002181700121C17003216C
:1007C000417007A90920C006FFF7D2FCE1204002D2
:1007D0000190002002900390049006900C20059058
:1007E00001A90448FFF742FF01210248FFF732FF49
:1007F00009B000BD0038014002E008C8121F08C15E
:10080000002AFAD170477047002001E001C1121F91
:10081000002AFBD1704710B5FFF7B2FFFFF716FDB6
:1008200010210920C006FFF70DFD4220FFF79AFFB7
:10083000002010BD54080008000000201000000037
:10084000F8070008640800081000002000040000F9
:10085000080800080000000001020304010203046C
:040860000607080976
:04000005080000B53A
:00000001FF
