Component: ARM Compiler 5.05 update 2 (build 169) Tool: armlink [4d0f33]

==============================================================================

Section Cross References

    system_stm32f0xx.o(i.SystemCoreClockUpdate) refers to uidiv.o(.text) for __aeabi_uidivmod
    system_stm32f0xx.o(i.SystemCoreClockUpdate) refers to system_stm32f0xx.o(.data) for SystemCoreClock
    system_stm32f0xx.o(i.SystemInit) refers to system_stm32f0xx.o(i.SetSysClock) for SetSysClock
    led.o(i.LED_Blink) refers to printfb.o(i.__0printf$bare) for __2printf
    led.o(i.LED_Blink) refers to systick.o(i.Delay_Ms) for Delay_Ms
    systick.o(i.Delay_Ms) refers to systick.o(.data) for fac_ms
    systick.o(i.Delay_Us) refers to systick.o(.data) for fac_us
    systick.o(i.SysTick_Init) refers to systick.o(.data) for fac_us
    usart.o(i.Usart_Init) refers to ffltui.o(.text) for __aeabi_ui2f
    usart.o(i.Usart_Init) refers to fdiv.o(.text) for __aeabi_fdiv
    usart.o(i.Usart_Init) refers to ffixui.o(.text) for __aeabi_f2uiz
    usart.o(i.Usart_Init) refers to fadd.o(.text) for __aeabi_frsub
    usart.o(i.Usart_Init) refers to f2d.o(.text) for __aeabi_f2d
    usart.o(i.Usart_Init) refers to cdrcmple.o(.text) for __aeabi_cdrcmple
    usart.o(i.fputc) refers to usart.o(i.Usart_Send_Byte) for Usart_Send_Byte
    startup_stm32f030.o(RESET) refers to startup_stm32f030.o(STACK) for __initial_sp
    startup_stm32f030.o(RESET) refers to startup_stm32f030.o(.text) for Reset_Handler
    startup_stm32f030.o(.text) refers to startup_stm32f030.o(STACK) for __initial_sp
==============================================================================

Removing Unused input sections from the image.

    Removing system_stm32f0xx.o(.rev16_text), (4 bytes).
    Removing system_stm32f0xx.o(.revsh_text), (4 bytes).
    Removing system_stm32f0xx.o(i.SystemCoreClockUpdate), (176 bytes).
    Removing system_stm32f0xx.o(.data), (20 bytes).
    Removing led.o(.rev16_text), (4 bytes).
    Removing led.o(.revsh_text), (4 bytes).
    Removing systick.o(.rev16_text), (4 bytes).
    Removing systick.o(.revsh_text), (4 bytes).
    Removing systick.o(i.Delay_Us), (64 bytes).
    Removing usart.o(.rev16_text), (4 bytes).
    Removing usart.o(.revsh_text), (4 bytes).
    Removing startup_stm32f030.o(HEAP), (512 bytes).
    Removing main.o(.rev16_text), (4 bytes).
    Removing main.o(.revsh_text), (4 bytes).
    Removing dadd.o(.text), (356 bytes).
    Removing dmul.o(.text), (208 bytes).
    Removing ddiv.o(.text), (240 bytes).
    Removing dfixul.o(.text), (64 bytes).
==============================================================================

Image Symbol Table

    Local Symbols

    Symbol Name                              Value     Ov Type        Size  Object(Section)

    ../clib/microlib/division.c              0x00000000   Number         0  uldiv.o ABSOLUTE
    ../clib/microlib/division.c              0x00000000   Number         0  uidiv.o ABSOLUTE
    ../clib/microlib/init/entry.s            0x00000000   Number         0  entry9b.o ABSOLUTE
    ../clib/microlib/init/entry.s            0x00000000   Number         0  entry10a.o ABSOLUTE
    ../clib/microlib/init/entry.s            0x00000000   Number         0  entry10b.o ABSOLUTE
    ../clib/microlib/init/entry.s            0x00000000   Number         0  entry11a.o ABSOLUTE
    ../clib/microlib/init/entry.s            0x00000000   Number         0  entry11b.o ABSOLUTE
    ../clib/microlib/init/entry.s            0x00000000   Number         0  entry7b.o ABSOLUTE
    ../clib/microlib/init/entry.s            0x00000000   Number         0  entry8a.o ABSOLUTE
    ../clib/microlib/init/entry.s            0x00000000   Number         0  entry.o ABSOLUTE
    ../clib/microlib/init/entry.s            0x00000000   Number         0  entry8b.o ABSOLUTE
    ../clib/microlib/init/entry.s            0x00000000   Number         0  entry9a.o ABSOLUTE
    ../clib/microlib/init/entry.s            0x00000000   Number         0  entry7a.o ABSOLUTE
    ../clib/microlib/init/entry.s            0x00000000   Number         0  entry2.o ABSOLUTE
    ../clib/microlib/init/entry.s            0x00000000   Number         0  entry5.o ABSOLUTE
    ../clib/microlib/longlong.c              0x00000000   Number         0  llsshr.o ABSOLUTE
    ../clib/microlib/longlong.c              0x00000000   Number         0  llushr.o ABSOLUTE
    ../clib/microlib/longlong.c              0x00000000   Number         0  llshl.o ABSOLUTE
    ../clib/microlib/printf/printf.c         0x00000000   Number         0  printfa.o ABSOLUTE
    ../clib/microlib/printf/printf.c         0x00000000   Number         0  printf2.o ABSOLUTE
    ../clib/microlib/printf/printf.c         0x00000000   Number         0  printf4.o ABSOLUTE
    ../clib/microlib/printf/printf.c         0x00000000   Number         0  printf5.o ABSOLUTE
    ../clib/microlib/printf/printf.c         0x00000000   Number         0  printfb.o ABSOLUTE
    ../clib/microlib/printf/printf.c         0x00000000   Number         0  printf6.o ABSOLUTE
    ../clib/microlib/printf/printf.c         0x00000000   Number         0  printf7.o ABSOLUTE
    ../clib/microlib/printf/printf.c         0x00000000   Number         0  printf0.o ABSOLUTE
    ../clib/microlib/printf/printf.c         0x00000000   Number         0  printf1.o ABSOLUTE
    ../clib/microlib/printf/printf.c         0x00000000   Number         0  printf8.o ABSOLUTE
    ../clib/microlib/printf/printf.c         0x00000000   Number         0  printf3.o ABSOLUTE
    ../clib/microlib/stdio/streams.c         0x00000000   Number         0  stdout.o ABSOLUTE
    ../clib/microlib/stubs.s                 0x00000000   Number         0  iusefp.o ABSOLUTE
    ../fplib/microlib/f2d.c                  0x00000000   Number         0  f2d.o ABSOLUTE
    ../fplib/microlib/fpadd.c                0x00000000   Number         0  fadd.o ABSOLUTE
    ../fplib/microlib/fpadd.c                0x00000000   Number         0  dadd.o ABSOLUTE
    ../fplib/microlib/fpdiv.c                0x00000000   Number         0  ddiv.o ABSOLUTE
    ../fplib/microlib/fpdiv.c                0x00000000   Number         0  fdiv.o ABSOLUTE
    ../fplib/microlib/fpepilogue.c           0x00000000   Number         0  fepilogue.o ABSOLUTE
    ../fplib/microlib/fpepilogue.c           0x00000000   Number         0  depilogue.o ABSOLUTE
    ../fplib/microlib/fpfix.c                0x00000000   Number         0  dfixul.o ABSOLUTE
    ../fplib/microlib/fpfix.c                0x00000000   Number         0  ffixui.o ABSOLUTE
    ../fplib/microlib/fpflt.c                0x00000000   Number         0  ffltui.o ABSOLUTE
    ../fplib/microlib/fpmul.c                0x00000000   Number         0  dmul.o ABSOLUTE
    ..\CMSIS\system_stm32f0xx.c              0x00000000   Number         0  system_stm32f0xx.o ABSOLUTE
    ..\Driver\src\LED\led.c                  0x00000000   Number         0  led.o ABSOLUTE
    ..\Driver\src\SysTick\SysTick.c          0x00000000   Number         0  systick.o ABSOLUTE
    ..\Driver\src\USART\usart.c              0x00000000   Number         0  usart.o ABSOLUTE
    ..\Startup\startup_stm32f030.s           0x00000000   Number         0  startup_stm32f030.o ABSOLUTE
    ..\User\main.c                           0x00000000   Number         0  main.o ABSOLUTE
    ..\\CMSIS\\system_stm32f0xx.c            0x00000000   Number         0  system_stm32f0xx.o ABSOLUTE
    ..\\Driver\\src\\LED\\led.c              0x00000000   Number         0  led.o ABSOLUTE
    ..\\Driver\\src\\SysTick\\SysTick.c      0x00000000   Number         0  systick.o ABSOLUTE
    ..\\Driver\\src\\USART\\usart.c          0x00000000   Number         0  usart.o ABSOLUTE
    ..\\User\\main.c                         0x00000000   Number         0  main.o ABSOLUTE
    cdrcmple.s                               0x00000000   Number         0  cdrcmple.o ABSOLUTE
    dc.s                                     0x00000000   Number         0  dc.o ABSOLUTE
    handlers.s                               0x00000000   Number         0  handlers.o ABSOLUTE
    init.s                                   0x00000000   Number         0  init.o ABSOLUTE
    RESET                                    0x08000000   Section      180  startup_stm32f030.o(RESET)
    .ARM.Collect$$$$00000000                 0x080000b4   Section        0  entry.o(.ARM.Collect$$$$00000000)
    .ARM.Collect$$$$00000001                 0x080000b4   Section        4  entry2.o(.ARM.Collect$$$$00000001)
    .ARM.Collect$$$$00000004                 0x080000b8   Section        4  entry5.o(.ARM.Collect$$$$00000004)
    .ARM.Collect$$$$00000008                 0x080000bc   Section        0  entry7b.o(.ARM.Collect$$$$00000008)
    .ARM.Collect$$$$0000000A                 0x080000bc   Section        0  entry8b.o(.ARM.Collect$$$$0000000A)
    .ARM.Collect$$$$0000000B                 0x080000bc   Section        8  entry9a.o(.ARM.Collect$$$$0000000B)
    .ARM.Collect$$$$0000000D                 0x080000c4   Section        0  entry10a.o(.ARM.Collect$$$$0000000D)
    .ARM.Collect$$$$0000000F                 0x080000c4   Section        0  entry11a.o(.ARM.Collect$$$$0000000F)
    .ARM.Collect$$$$00002712                 0x080000c4   Section        4  entry2.o(.ARM.Collect$$$$00002712)
    __lit__00000000                          0x080000c4   Data           4  entry2.o(.ARM.Collect$$$$00002712)
    .text                                    0x080000c8   Section       88  startup_stm32f030.o(.text)
    .text                                    0x08000120   Section        0  fadd.o(.text)
    .text                                    0x080001d2   Section        0  fdiv.o(.text)
    .text                                    0x0800024e   Section        0  ffltui.o(.text)
    .text                                    0x0800025c   Section        0  ffixui.o(.text)
    .text                                    0x08000284   Section        0  f2d.o(.text)
    .text                                    0x080002ac   Section       40  cdrcmple.o(.text)
    .text                                    0x080002d4   Section        0  fepilogue.o(.text)
    .text                                    0x080002d4   Section        0  iusefp.o(.text)
    .text                                    0x08000358   Section       36  init.o(.text)
    i.Delay_Ms                               0x0800037c   Section        0  systick.o(i.Delay_Ms)
    i.LED_Blink                              0x080003bc   Section        0  led.o(i.LED_Blink)
    i.LED_Init                               0x08000434   Section        0  led.o(i.LED_Init)
    i.SetSysClock                            0x08000478   Section        0  system_stm32f0xx.o(i.SetSysClock)
    SetSysClock                              0x08000479   Thumb Code   206  system_stm32f0xx.o(i.SetSysClock)
    i.SysTick_Init                           0x08000550   Section        0  systick.o(i.SysTick_Init)
    i.SystemInit                             0x08000588   Section        0  system_stm32f0xx.o(i.SystemInit)
    i.Usart_Init                             0x08000604   Section        0  usart.o(i.Usart_Init)
    i.Usart_Send_Byte                        0x0800071c   Section        0  usart.o(i.Usart_Send_Byte)
    i.__0printf$bare                         0x08000738   Section        0  printfb.o(i.__0printf$bare)
    i.__scatterload_copy                     0x0800074c   Section       14  handlers.o(i.__scatterload_copy)
    i.__scatterload_null                     0x0800075a   Section        2  handlers.o(i.__scatterload_null)
    i.__scatterload_zeroinit                 0x0800075c   Section       14  handlers.o(i.__scatterload_zeroinit)
    i._printf_core                           0x0800076a   Section        0  printfb.o(i._printf_core)
    _printf_core                             0x0800076b   Thumb Code    30  printfb.o(i._printf_core)
    i.fputc                                  0x08000788   Section        0  usart.o(i.fputc)
    i.main                                   0x08000798   Section        0  main.o(i.main)
    .data                                    0x20000000   Section        4  systick.o(.data)
    fac_us                                   0x20000000   Data           1  systick.o(.data)
    fac_ms                                   0x20000002   Data           2  systick.o(.data)
    .data                                    0x20000004   Section        4  stdout.o(.data)
    STACK                                    0x20000008   Section     1024  startup_stm32f030.o(STACK)

    Global Symbols

    Symbol Name                              Value     Ov Type        Size  Object(Section)

    BuildAttributes$$THM_ISAv3M$S$PE$A:L22$X:L11$S22$IEEE1$IW$USESV6$~STKCKD$USESV7$~SHL$OTIME$ROPI$EBA8$MICROLIB$REQ8$PRES8$EABIv2 0x00000000   Number         0  anon$$obj.o ABSOLUTE
    __ARM_use_no_argv                        0x00000000   Number         0  main.o ABSOLUTE
    __cpp_initialize__aeabi_                  - Undefined Weak Reference
    __cxa_finalize                            - Undefined Weak Reference
    __decompress                              - Undefined Weak Reference
    _clock_init                               - Undefined Weak Reference
    _microlib_exit                            - Undefined Weak Reference
    __Vectors_Size                           0x000000b4   Number         0  startup_stm32f030.o ABSOLUTE
    __Vectors                                0x08000000   Data           4  startup_stm32f030.o(RESET)
    __Vectors_End                            0x080000b4   Data           0  startup_stm32f030.o(RESET)
    __main                                   0x080000b5   Thumb Code     0  entry.o(.ARM.Collect$$$$00000000)
    _main_stk                                0x080000b5   Thumb Code     0  entry2.o(.ARM.Collect$$$$00000001)
    _main_scatterload                        0x080000b9   Thumb Code     0  entry5.o(.ARM.Collect$$$$00000004)
    __main_after_scatterload                 0x080000bd   Thumb Code     0  entry5.o(.ARM.Collect$$$$00000004)
    _main_clock                              0x080000bd   Thumb Code     0  entry7b.o(.ARM.Collect$$$$00000008)
    _main_cpp_init                           0x080000bd   Thumb Code     0  entry8b.o(.ARM.Collect$$$$0000000A)
    _main_init                               0x080000bd   Thumb Code     0  entry9a.o(.ARM.Collect$$$$0000000B)
    __rt_final_cpp                           0x080000c5   Thumb Code     0  entry10a.o(.ARM.Collect$$$$0000000D)
    __rt_final_exit                          0x080000c5   Thumb Code     0  entry11a.o(.ARM.Collect$$$$0000000F)
    Reset_Handler                            0x080000c9   Thumb Code    38  startup_stm32f030.o(.text)
    NMI_Handler                              0x080000ef   Thumb Code     2  startup_stm32f030.o(.text)
    HardFault_Handler                        0x080000f1   Thumb Code     2  startup_stm32f030.o(.text)
    SVC_Handler                              0x080000f3   Thumb Code     2  startup_stm32f030.o(.text)
    PendSV_Handler                           0x080000f5   Thumb Code     2  startup_stm32f030.o(.text)
    SysTick_Handler                          0x080000f7   Thumb Code     2  startup_stm32f030.o(.text)
    ADC1_IRQHandler                          0x080000f9   Thumb Code     0  startup_stm32f030.o(.text)
    DMA1_Channel1_IRQHandler                 0x080000f9   Thumb Code     0  startup_stm32f030.o(.text)
    DMA1_Channel2_3_IRQHandler               0x080000f9   Thumb Code     0  startup_stm32f030.o(.text)
    DMA1_Channel4_5_IRQHandler               0x080000f9   Thumb Code     0  startup_stm32f030.o(.text)
    EXTI0_1_IRQHandler                       0x080000f9   Thumb Code     0  startup_stm32f030.o(.text)
    EXTI2_3_IRQHandler                       0x080000f9   Thumb Code     0  startup_stm32f030.o(.text)
    EXTI4_15_IRQHandler                      0x080000f9   Thumb Code     0  startup_stm32f030.o(.text)
    FLASH_IRQHandler                         0x080000f9   Thumb Code     0  startup_stm32f030.o(.text)
    I2C1_IRQHandler                          0x080000f9   Thumb Code     0  startup_stm32f030.o(.text)
    I2C2_IRQHandler                          0x080000f9   Thumb Code     0  startup_stm32f030.o(.text)
    RCC_IRQHandler                           0x080000f9   Thumb Code     0  startup_stm32f030.o(.text)
    RTC_IRQHandler                           0x080000f9   Thumb Code     0  startup_stm32f030.o(.text)
    SPI1_IRQHandler                          0x080000f9   Thumb Code     0  startup_stm32f030.o(.text)
    SPI2_IRQHandler                          0x080000f9   Thumb Code     0  startup_stm32f030.o(.text)
    TIM14_IRQHandler                         0x080000f9   Thumb Code     0  startup_stm32f030.o(.text)
    TIM15_IRQHandler                         0x080000f9   Thumb Code     0  startup_stm32f030.o(.text)
    TIM16_IRQHandler                         0x080000f9   Thumb Code     0  startup_stm32f030.o(.text)
    TIM17_IRQHandler                         0x080000f9   Thumb Code     0  startup_stm32f030.o(.text)
    TIM1_BRK_UP_TRG_COM_IRQHandler           0x080000f9   Thumb Code     0  startup_stm32f030.o(.text)
    TIM1_CC_IRQHandler                       0x080000f9   Thumb Code     0  startup_stm32f030.o(.text)
    TIM3_IRQHandler                          0x080000f9   Thumb Code     0  startup_stm32f030.o(.text)
    USART1_IRQHandler                        0x080000f9   Thumb Code     0  startup_stm32f030.o(.text)
    USART2_IRQHandler                        0x080000f9   Thumb Code     0  startup_stm32f030.o(.text)
    WWDG_IRQHandler                          0x080000f9   Thumb Code     0  startup_stm32f030.o(.text)
    __aeabi_fadd                             0x08000121   Thumb Code   162  fadd.o(.text)
    __aeabi_fsub                             0x080001c3   Thumb Code     8  fadd.o(.text)
    __aeabi_frsub                            0x080001cb   Thumb Code     8  fadd.o(.text)
    __aeabi_fdiv                             0x080001d3   Thumb Code   124  fdiv.o(.text)
    __aeabi_ui2f                             0x0800024f   Thumb Code    14  ffltui.o(.text)
    __aeabi_f2uiz                            0x0800025d   Thumb Code    40  ffixui.o(.text)
    __aeabi_f2d                              0x08000285   Thumb Code    40  f2d.o(.text)
    __aeabi_cdrcmple                         0x080002ad   Thumb Code    38  cdrcmple.o(.text)
    __I$use$fp                               0x080002d5   Thumb Code     0  iusefp.o(.text)
    _float_round                             0x080002d5   Thumb Code    16  fepilogue.o(.text)
    _float_epilogue                          0x080002e5   Thumb Code   114  fepilogue.o(.text)
    __scatterload                            0x08000359   Thumb Code    28  init.o(.text)
    __scatterload_rt2                        0x08000359   Thumb Code     0  init.o(.text)
    Delay_Ms                                 0x0800037d   Thumb Code    54  systick.o(i.Delay_Ms)
    LED_Blink                                0x080003bd   Thumb Code    76  led.o(i.LED_Blink)
    LED_Init                                 0x08000435   Thumb Code    62  led.o(i.LED_Init)
    SysTick_Init                             0x08000551   Thumb Code    42  systick.o(i.SysTick_Init)
    SystemInit                               0x08000589   Thumb Code   110  system_stm32f0xx.o(i.SystemInit)
    Usart_Init                               0x08000605   Thumb Code   260  usart.o(i.Usart_Init)
    Usart_Send_Byte                          0x0800071d   Thumb Code    22  usart.o(i.Usart_Send_Byte)
    __0printf$bare                           0x08000739   Thumb Code    12  printfb.o(i.__0printf$bare)
    __1printf$bare                           0x08000739   Thumb Code     0  printfb.o(i.__0printf$bare)
    __2printf                                0x08000739   Thumb Code     0  printfb.o(i.__0printf$bare)
    __scatterload_copy                       0x0800074d   Thumb Code    14  handlers.o(i.__scatterload_copy)
    __scatterload_null                       0x0800075b   Thumb Code     2  handlers.o(i.__scatterload_null)
    __scatterload_zeroinit                   0x0800075d   Thumb Code    14  handlers.o(i.__scatterload_zeroinit)
    fputc                                    0x08000789   Thumb Code    16  usart.o(i.fputc)
    main                                     0x08000799   Thumb Code    74  main.o(i.main)
    Region$$Table$$Base                      0x08000840   Number         0  anon$$obj.o(Region$$Table)
    Region$$Table$$Limit                     0x08000860   Number         0  anon$$obj.o(Region$$Table)
    __stdout                                 0x20000004   Data           4  stdout.o(.data)
    __initial_sp                             0x20000408   Data           0  startup_stm32f030.o(STACK)



==============================================================================

Memory Map of the image

  Image Entry point : 0x080000b5

  Load Region LR_IROM1 (Base: 0x08000000, Size: 0x00000868, Max: 0x00004000, ABSOLUTE)

    Execution Region ER_IROM1 (Base: 0x08000000, Size: 0x00000860, Max: 0x00004000, ABSOLUTE)

    Base Addr    Size         Type   Attr      Idx    E Section Name        Object

    0x08000000   0x000000b4   Data   RO          167    RESET               startup_stm32f030.o
    0x080000b4   0x00000000   Code   RO          192  * .ARM.Collect$$$$00000000  mc_p.l(entry.o)
    0x080000b4   0x00000004   Code   RO          469    .ARM.Collect$$$$00000001  mc_p.l(entry2.o)
    0x080000b8   0x00000004   Code   RO          472    .ARM.Collect$$$$00000004  mc_p.l(entry5.o)
    0x080000bc   0x00000000   Code   RO          474    .ARM.Collect$$$$00000008  mc_p.l(entry7b.o)
    0x080000bc   0x00000000   Code   RO          476    .ARM.Collect$$$$0000000A  mc_p.l(entry8b.o)
    0x080000bc   0x00000008   Code   RO          477    .ARM.Collect$$$$0000000B  mc_p.l(entry9a.o)
    0x080000c4   0x00000000   Code   RO          479    .ARM.Collect$$$$0000000D  mc_p.l(entry10a.o)
    0x080000c4   0x00000000   Code   RO          481    .ARM.Collect$$$$0000000F  mc_p.l(entry11a.o)
    0x080000c4   0x00000004   Code   RO          470    .ARM.Collect$$$$00002712  mc_p.l(entry2.o)
    0x080000c8   0x00000058   Code   RO          168    .text               startup_stm32f030.o
    0x08000120   0x000000b2   Code   RO          457    .text               mf_p.l(fadd.o)
    0x080001d2   0x0000007c   Code   RO          459    .text               mf_p.l(fdiv.o)
    0x0800024e   0x0000000e   Code   RO          461    .text               mf_p.l(ffltui.o)
    0x0800025c   0x00000028   Code   RO          463    .text               mf_p.l(ffixui.o)
    0x08000284   0x00000028   Code   RO          465    .text               mf_p.l(f2d.o)
    0x080002ac   0x00000028   Code   RO          467    .text               mf_p.l(cdrcmple.o)
    0x080002d4   0x00000000   Code   RO          486    .text               mc_p.l(iusefp.o)
    0x080002d4   0x00000082   Code   RO          487    .text               mf_p.l(fepilogue.o)
    0x08000356   0x00000002   PAD
    0x08000358   0x00000024   Code   RO          497    .text               mc_p.l(init.o)
    0x0800037c   0x00000040   Code   RO           98    i.Delay_Ms          systick.o
    0x080003bc   0x00000078   Code   RO           58    i.LED_Blink         led.o
    0x08000434   0x00000044   Code   RO           59    i.LED_Init          led.o
    0x08000478   0x000000d8   Code   RO            3    i.SetSysClock       system_stm32f0xx.o
    0x08000550   0x00000038   Code   RO          100    i.SysTick_Init      systick.o
    0x08000588   0x0000007c   Code   RO            5    i.SystemInit        system_stm32f0xx.o
    0x08000604   0x00000118   Code   RO          132    i.Usart_Init        usart.o
    0x0800071c   0x0000001c   Code   RO          133    i.Usart_Send_Byte   usart.o
    0x08000738   0x00000014   Code   RO          198    i.__0printf$bare    mc_p.l(printfb.o)
    0x0800074c   0x0000000e   Code   RO          511    i.__scatterload_copy  mc_p.l(handlers.o)
    0x0800075a   0x00000002   Code   RO          512    i.__scatterload_null  mc_p.l(handlers.o)
    0x0800075c   0x0000000e   Code   RO          513    i.__scatterload_zeroinit  mc_p.l(handlers.o)
    0x0800076a   0x0000001e   Code   RO          205    i._printf_core      mc_p.l(printfb.o)
    0x08000788   0x00000010   Code   RO          134    i.fputc             usart.o
    0x08000798   0x000000a8   Code   RO          174    i.main              main.o
    0x08000840   0x00000020   Data   RO          509    Region$$Table       anon$$obj.o


    Execution Region RW_IRAM1 (Base: 0x20000000, Size: 0x00000408, Max: 0x00001000, ABSOLUTE)

    Base Addr    Size         Type   Attr      Idx    E Section Name        Object

    0x20000000   0x00000004   Data   RW          101    .data               systick.o
    0x20000004   0x00000004   Data   RW          483    .data               mc_p.l(stdout.o)
    0x20000008   0x00000400   Zero   RW          165    STACK               startup_stm32f030.o


==============================================================================

Image component sizes


      Code (inc. data)   RO Data    RW Data    ZI Data      Debug   Object Name

       188         50          0          0          0       2231   led.o
       168         94          0          0          0        519   main.o
        88         38        180          0       1024        672   startup_stm32f030.o
       340         24          0          0          0       6049   system_stm32f0xx.o
       120         24          0          4          0       1362   systick.o
       324         26          0          0          0       1811   usart.o

    ----------------------------------------------------------------------
      1228        256        212          4       1024      12644   Object Totals
         0          0         32          0          0          0   (incl. Generated)
         0          0          0          0          0          0   (incl. Padding)

    ----------------------------------------------------------------------

      Code (inc. data)   RO Data    RW Data    ZI Data      Debug   Library Member Name

         0          0          0          0          0          0   entry.o
         0          0          0          0          0          0   entry10a.o
         0          0          0          0          0          0   entry11a.o
         8          4          0          0          0          0   entry2.o
         4          0          0          0          0          0   entry5.o
         0          0          0          0          0          0   entry7b.o
         0          0          0          0          0          0   entry8b.o
         8          4          0          0          0          0   entry9a.o
        30          0          0          0          0          0   handlers.o
        36          8          0          0          0         68   init.o
         0          0          0          0          0          0   iusefp.o
        50          8          0          0          0        144   printfb.o
         0          0          0          4          0          0   stdout.o
        40          2          0          0          0         68   cdrcmple.o
        40          0          0          0          0         60   f2d.o
       178          0          0          0          0        108   fadd.o
       124          0          0          0          0         72   fdiv.o
       130          0          0          0          0        144   fepilogue.o
        40          0          0          0          0         60   ffixui.o
        14          0          0          0          0         68   ffltui.o

    ----------------------------------------------------------------------
       704         26          0          4          0        792   Library Totals
         2          0          0          0          0          0   (incl. Padding)

    ----------------------------------------------------------------------

      Code (inc. data)   RO Data    RW Data    ZI Data      Debug   Library Name

       136         24          0          4          0        212   mc_p.l
       566          2          0          0          0        580   mf_p.l

    ----------------------------------------------------------------------
       704         26          0          4          0        792   Library Totals

    ----------------------------------------------------------------------

==============================================================================


      Code (inc. data)   RO Data    RW Data    ZI Data      Debug   

      1932        282        212          8       1024      12964   Grand Totals
      1932        282        212          8       1024      12964   ELF Image Totals
      1932        282        212          8          0          0   ROM Totals

==============================================================================

    Total RO  Size (Code + RO Data)                 2144 (   2.09kB)
    Total RW  Size (RW Data + ZI Data)              1032 (   1.01kB)
    Total ROM Size (Code + RO Data + RW Data)       2152 (   2.10kB)

==============================================================================

